:100000000C94FB010C94551D0C9442020C9442027A
:100010000C9442020C9442020C9442020C94420250
:100020000C9442020C9442020C94CA240C949C2519
:100030000C94E41F0C9442020C9442020C94420271
:100040000C9442020C9442020C9442020C94420220
:100050000C9442020C9459200C9442020C944202DB
:100060000C9442020C9442020C9442020C94420200
:100070000C9442020C9442020C9442020C944202F0
:100080000C9442020C9442020C9442020C944202E0
:100090000C9442020C9442020C9442020C944202D0
:1000A0000C9442020C9442020C944202EA04EA04C8
:1000B000160516057E059C05C106C106A7053C066A
:1000C0004D064D06B106C106C106BA0665076507AD
:1000D000770777076E07770777077707650765075D
:1000E00073077707770773070926302628273026F6
:1000F00028277C269F262827F626052729001E006C
:100100001F002000210022002B0014001A0009000B
:1001100013000500E10004001500160017000A0096
:10012000E0001D001B000600070019000000000091
:100130002F00300002512C00000000002A00350082
:100140002B004A00230024002500260027002A0057
:100150000D000F0018001C0033002D0010001100CE
:1001600008000C00120034000E000B0036003700AF
:1001700038003100280001512E022E00000000003E
:100180004D004C00E300E2000000000035021E02BA
:100190001F022002210222020100010001000100D1
:1001A00001002F0001004A004B004E004D002602C6
:1001B0000100010001000100010001000000000039
:1001C00001004600010001000000000001000100E4
:1001D00001000100230224022502260227024C000E
:1001E00030005F006000610001002E0227025C0009
:1001F0005D005E002D003102E30059005A005B00F3
:100200002E002D020100010001006200000000002C
:1002100001000100010001000000000045003A005B
:100220003B003C003D003E000100010001000100D8
:1002300001002F0001005000520051004F00260223
:1002400001000100010001000100010000000000A8
:100250000100010001000100000000000100010098
:10026000010001003F004000410042004300440003
:1002700030000100530049004700A8002702AC00ED
:10028000AE00AB000100A900E30001000100010085
:100290000100AA00010001002E0001000000000082
:1002A0000100010001000100000000002C034400D7
:1002B00061006300740079006C002D004D00610046
:1002C0006E00750066006F0072006D00200028004F
:1002D000350078003600290000000E03740073001A
:1002E00068006F0072007400000004030904090232
:1002F0003B00020100A0FA09040000010301010013
:100300000921110100012240000705810308000AAC
:10031000090401000103000000092111010001226C
:100320007B000705820320000A1201000200000082
:10033000084D44363501000102000105010902A102
:100340000185020901A100050919012908150025E7
:1003500001950875018102050109300931158125D2
:100360007F95027508810609381581257F950175ED
:10037000088106050C0A38021581257F950175084C
:100380008106C0C005010980A101850319012AB7B2
:1003900000150126B700950175108100C0050C09F4
:1003A00001A101850419012AA002150126A00295C8
:1003B0000175108100C005010906A101050719E0BA
:1003C00029E7150025019508750181029501750839
:1003D00081010507190029FF150026FF0095067504
:1003E00008810005081901290595057501910295F7
:1003F0000175039101C011241FBECFEFDAE0DEBF0B
:10040000CDBF04B603FE27C08091C3029091C40201
:10041000A091C502B091C6028730904BA740B04B67
:10042000D1F41092C3021092C4021092C50210922D
:10043000C60214BE84B7877F84BF0FB6F894A89510
:1004400080916000886180936000109260000FBE10
:10045000E0E0F8E3099511E0A0E0B1E0ECEEFFE4A4
:1004600002C005900D92AC3AB107D9F722E0ACEA90
:10047000B1E001C01D92A33CB207E1F70E945F16F4
:100480000C94F4270C94000081E0089581E0089515
:100490000C94460208950C944A021F93CF93DF9365
:1004A00000D000D01F92CDB7DEB749835A836B834B
:1004B0003091AE0189819A81311114C0662359F0BF
:1004C000222349F00E940B09182F682F89819A81F5
:1004D0000E94B20803C00E94DE08182F69817A8149
:1004E000812F04C00E940B0969817A810F900F90BF
:1004F0000F900F900F90DF91CF911F910C94D30F1D
:10050000FC01262F408151816281738184810C948A
:100510004D0281E00895CF93DF93EC0160E00E94EB
:100520008002BE01DF91CF910C944B020E942A12EF
:100530000E9414030C9464120C94601280E00C94DA
:10054000150308950C94A1020E9453070E94A20271
:100550002FEF84E39CE0215080409040E1F700C001
:1005600000000C947F200F931F93CF93DF938C0197
:1005700061E00E948002EC01B8010E9448028823D9
:10058000F1F1B801CE010E94621C8823C1F1B801CB
:10059000CE010E941719882391F1B801CE010E9463
:1005A000BE1B882361F1F8018281882309F1CB35D4
:1005B0008DE5D807C1F050F4C115FCE5DF0781F0E7
:1005C000CF3DDC45A9F40E94E90E19C0CC35EDE51C
:1005D000DE0761F0CD35DD4559F40E94320E08C0CA
:1005E0000E94A4020CC00E943B0E02C00E943E0E5C
:1005F000C801DF91CF911F910F910C94440280E0CC
:10060000DF91CF911F910F9108950C94A1020E9448
:10061000DE1E0E9415030C94050308950C940D032F
:1006200081E008950C9410030895CF93C82F0E9481
:100630000E038C2F0E941203CF910895CF93DF9366
:10064000CDB7DEB72B970FB6F894DEBF0FBECDBF88
:100650004F83588769877A878B8761110E947E0D47
:100660009E012F5F3F4F86E0F90111928A95E9F7CD
:1006700085E0FE013796D90101900D928A95E1F748
:1006800089819A814C815D81452B31F09F3F31F406
:1006900091E08F3F19F403C091E001C090E090FF1A
:1006A00009C049815A816B817C818D819E810E9424
:1006B0009F0C05C0C9010E9489028111F2CF2B96BF
:1006C0000FB6F894DEBF0FBECDBFDF91CF91089576
:1006D000FC01808191810E944D090895CF93882368
:1006E00009F4A9C0C82F8238C1F40E94DE1E81FD22
:1006F000A2C069E380910201909103010E94781FDA
:100700000E94B00D2FEF81EE94E021508040904088
:10071000E1F700C0000069E319C0833801F50E94C9
:10072000DE1E80FD88C063E5809102019091030187
:100730000E94781F0E94B00D2FEF81EE94E02150AF
:1007400080409040E1F700C0000063E58091020125
:10075000909103010E947A1FCF910C94B00D8438C0
:10076000C1F40E94DE1E82FD66C067E48091020132
:10077000909103010E94781F0E94B00D2FEF81EE2F
:1007800094E0215080409040E1F700C0000067E411
:10079000DDCF8CEF8C0F813AF8F48C2F0E94751B03
:1007A000811149C06C2F80910201909103010E9438
:1007B000421F882349F06C2F809102019091030120
:1007C0000E947A1F0E94B00D6C2F809102019091BF
:1007D00003010E94781FC0CF80E28C0F883048F45C
:1007E000C77081E001C0880FCA95EAF70E94610DC9
:1007F000B3CFEBE5EC0FE33040F4F0E0EC59FE4F03
:10080000808190E0CF910C940A1FE8E5EC0FE7316E
:1008100050F4F0E0EE0FFF1FEA5CFE4F8081918103
:10082000CF910C94201FCD3E30F08C2F0E94EE16FD
:10083000CF910C94C017CF910895882309F464C018
:10084000823879F40E94DE1E81FF5EC069E38091E8
:100850000201909103010E94781F0E94B00D69E38C
:1008600010C08338B1F40E94DE1E80FF4DC063E5E6
:1008700080910201909103010E94781F0E94B00DA7
:1008800063E580910201909103010E947A1F0C940C
:10089000B00D843879F40E94DE1E82FF35C067E413
:1008A00080910201909103010E94781F0E94B00D77
:1008B00067E4E7CF9CEF980F913A10F4682FE1CFEF
:1008C00090E2980F983050F4877091E001C0990F32
:1008D0008A95EAF7892F0E94670DD9CF9BE5980F7B
:1008E000933020F480E090E00C940A1F98E5980F74
:1008F000973120F480E090E00C94201F8D3E20F092
:100900000E9449170C94C01708951F93CF93DF934B
:10091000182FEB010E946E03209741F08FE99FE0B2
:100920000197F1F700C000002197F6CF812FDF91EA
:10093000CF911F910C941D04893319F060E070E091
:1009400002C060E570E00C948504882321F00E94C9
:10095000610D0C94B00D0895882321F00E94670D5D
:100960000C94B00D0895CF92DF92EF92FF920F9307
:100970001F93CF93DF937C01162FC72FFC01D281E9
:10098000058102950F700E94570D8823B9F0DD2371
:10099000A9F08C2F807F803421F080E2810F883095
:1009A00068F08091960282FD09C082E00E94000EEC
:1009B0000E94570D91E0D82ED92601C0D12CCC2E03
:1009C000C2948FE0C8228C2D90E0FC01EA5AFF4FC0
:1009D0000C9482278C2F807FCF70882311F0C295D2
:1009E000C07FDD2399F0CC2309F4A6C180E2810FFA
:1009F000883010F0111104C08C2F0E94610D03C0CB
:100A00008C2F0E94710D0E94B00D96C1812F0E9403
:100A10001D04CC2309F4B5C180E2810F883038F180
:100A2000112329F18C2F0E94770D24C08C2F807FF9
:100A3000CF70803211F0C295C07F112319F01130B0
:100A4000A1F13DC08091960282FF17C0DD2349F0DD
:100A5000CC2329F08C2F0E94610D0E94B00D80E004
:100A60006CC180E00E941D04CC2309F48AC18C2F44
:100A70000E94670D0E94B00D84C1DD2371F0002338
:100A800041F0013031F40E94910D8C2B0E94990DA0
:100A900078C10E94910D8C2B1DC0002319F00130EC
:100AA00009F46FC10E94A60D25C0DD2321F0063098
:100AB00008F067C10EC0053008F063C11BC0DD231C
:100AC00061F0002331F0F701858180FF35C18F701F
:100AD00085838C2F0E94A50454C1002359F019333B
:100AE00009F03BC1FFEF27EE83E0F150204080404A
:100AF000E1F731C18C2F0E94AC0443C18C2F869545
:100B00008695837019F0813061F03BC1DD2321F0BF
:100B1000812F9C2F937002C080E090E00E940A1FFA
:100B200038C1DD2321F0812F9C2F937002C080E01B
:100B300090E00E94201F2DC1812FDD2319F00E941B
:100B4000EE1602C00E9449170E94C01722C18C2FC6
:100B5000837009F045C0D11118C1412F42954695C7
:100B60004770440F440F612F6F70862F90E0A0E014
:100B7000B0E0042E04C0880F991FAA1FBB1F0A945F
:100B8000D2F714FF10C00FE010E020E030E004C006
:100B9000000F111F221F331F4A95D2F700951095A1
:100BA0002095309503C000E010E09801C695C695E9
:100BB000C370BC01CD01602B712B822B932BC230F3
:100BC00049F058F4C13019F00E94C807DEC00E94F5
:100BD000B607DBC00E94DA07D8C00E94B407D5C0B0
:100BE000DD2319F08C2F817001C08695882309F4CC
:100BF000CCC0412F429546954770440F440F612F5A
:100C00006F70862F90E0A0E0B0E0042E04C0880F43
:100C1000991FAA1FBB1F0A94D2F714FF10C00FE040
:100C200010E020E030E004C0000F111F221F331F2E
:100C30004A95D2F7009510952095309503C000E0B5
:100C400010E09801C695C695C370BC01CD01602B1C
:100C5000712B822B932BC23049F058F4C13019F01C
:100C60000E948D0892C00E947B088FC00E949F083E
:100C70008CC00E94EE0789C0CF70DD2339F08C2F25
:100C80000E941408812F0E94A5047FC0812F0E941A
:100C9000AC048C2F0E94350878C0123F21F128F453
:100CA000103F41F0113FC1F043C0133F19F1143F11
:100CB00079F03EC0DD2341F0053008F062C08C2F92
:100CC0008F710E945A085DC0063008F05AC0F7CFF5
:100CD0008091960282FF18C0DD2339F08C2F8F712E
:100CE0000E9414084EC0DD23C9F38C2F8F710E941F
:100CF000350847C0DD2329F08C2F8F710E94FF0734
:100D000040C00E94FA073DC0DD2349F0CF718C2F0F
:100D10000E94140863E08C2F0E94E50D32C081E030
:100D20000E94000E023068F182E00E94000E29C08D
:100D3000DD2331F0002391F2812F0E946E0321C048
:100D4000002399F2193349F49FEFE7EEF3E0915055
:100D5000E040F040E1F700C00000812F0E941D0438
:100D600010C04C2F4F70612FC7010E94CF0F0E94FF
:100D70007B090FC04C2F4F70612FC7010E94D20F0B
:100D800008C088EF8C0D843020F40E94DE1E0E9483
:100D90001503DD20C9F00E94530D80FD15C0F70139
:100DA00012820E944D0D0E941408C7010E9405077F
:100DB0000E944D0DDF91CF911F910F91FF90EF9009
:100DC000DF90CF900C943508DF91CF911F910F9158
:100DD000FF90EF90DF90CF9008950F931F93CF93E4
:100DE000DF93EC01688179818A810E9458098C0126
:100DF0000E94B1080E94A207B801CE010E94B3046C
:100E0000DF91CF911F910F910895CF93DF93EC0164
:100E1000988189812B813C81232B31F08F3F31F4E4
:100E200081E09F3F19F403C081E001C080E080FDB4
:100E30001DC0CE010E94B302811110C00E94570D47
:100E40008823A1F08A81882389F08091960282FD0F
:100E50000DC082E0DF91CF910C94000ECE010E9474
:100E6000ED06CE01DF91CF910C948B02DF91CF91F3
:100E7000089580E090E00E940A1F80E090E00E94C8
:100E8000201F0E947E0D0E948E0D0E94B00D0E94B8
:100E9000F1180C94C01780910201909103010E94F7
:100EA0007C1F0C9439070E946E0D0C944B07E92FA0
:100EB000E295EF704E2F50E0FA013297EE30F105D7
:100EC000B0F4EA59FF4F0C948227803F91F018F458
:100ED000883E68F40EC0843F51F40BC0883E48F051
:100EE000813F29F406C093FB882780F9089580E0AC
:100EF000089581E00895FC01808191810E944D094F
:100F00000E9457070895CF93DF9300D000D01F921F
:100F1000CDB7DEB70F900F900F900F900F90DF912D
:100F2000CF910895CF93DF9300D000D000D0CDB7FC
:100F3000DEB726960FB6F894DEBF0FBECDBFDF91A9
:100F4000CF910895089508950C94A3070C94A407D5
:100F50000E94A6076093E0017093E1018093E20193
:100F60009093E3010C9439070C94A8070F931F93F7
:100F70000091E0011091E1012091E2013091E30143
:100F8000602B712B822B932B1F910F910C94A80730
:100F90000F931F930091E0011091E1012091E20174
:100FA0003091E30160237123822393231F910F91DA
:100FB0000C94A8070F931F930091E0011091E10199
:100FC0002091E2013091E301602771278227932766
:100FD0001F910F910C94A8070C94A3070E94EC0793
:100FE0006093DC017093DD018093DE019093DF015B
:100FF0000C94390760E070E0CB010C94EE070F937E
:101000001F9341E050E060E070E08A019B0104C062
:10101000000F111F221F331F8A95D2F7C901B80193
:101020001F910F910C94EE070F931F9341E050E036
:1010300060E070E004C0440F551F661F771F8A955B
:10104000D2F78091DC019091DD01A091DE01B09199
:10105000DF018A019B01082B192B2A2B3B2BC9018D
:10106000B8011F910F910C94EE070F931F9341E06D
:1010700050E060E070E004C0440F551F661F771F0A
:101080008A95D2F740955095609570958091DC01D6
:101090009091DD01A091DE01B091DF018A019B01F9
:1010A000082319232A233B23C901B8011F910F915B
:1010B0000C94EE070F931F9341E050E060E070E066
:1010C00004C0440F551F661F771F8A95D2F7809181
:1010D000DC019091DD01A091DE01B091DF018A0178
:1010E0009B01082719272A273B27C901B8011F910F
:1010F0000F910C94EE070F931F930091DC01109158
:10110000DD012091DE013091DF01602B712B822BFC
:10111000932B1F910F910C94EE070F931F93009147
:10112000DC011091DD012091DE013091DF016023AF
:101130007123822393231F910F910C94EE070F9339
:101140001F930091DC011091DD012091DE013091AF
:10115000DF0160277127822793271F910F910C943D
:10116000EE070895292F220F920F990F890FE82F6C
:10117000E695E695E695877051E001C0550F8A9592
:10118000EAF785E0E89FF0011124E155FE4F20E0E9
:1011900030E070E04081CB01022E02C09695879529
:1011A0000A94E2F7817081958427852384278193AF
:1011B0002F5F3F4F2530310569F70895292F220F02
:1011C000920F990F890F682F669566956695982FEF
:1011D000977085E0689FB001112440E050E080E006
:1011E000FB01E40FF51FE155FE4F208130E0092E91
:1011F00002C0369527950A94E2F721703327042E12
:1012000001C0220F0A94EAF7822B4F5F5F4F4530EF
:10121000510531F70895BF92CF92DF92EF92FF927E
:101220000F931F93CF93DF938C01C090DC01D0907C
:10123000DD01E090DE01F090DF018091E00190910E
:10124000E101A091E201B091E301C82AD92AEA2A7A
:10125000FB2ACFE1D0E0D701C6010C2E04C0B69521
:10126000A795979587950A94D2F780FD04C021979A
:1012700090F7B12C07C0BC2EB8018C2F0E940A1128
:101280000197A9F38B2DDF91CF911F910F91FF90C3
:10129000EF90DF90CF90BF900895CF93DF93EC0154
:1012A0000E940B09BE010E940A11DF91CF9108959F
:1012B0001F93CF93DF93EB019091AE01992321F01F
:1012C000CB010E944D0913C0882349F0CB010E9435
:1012D0000B09182F682FCE010E94B20804C0CB0161
:1012E0000E94DE08182FBE01812F0E940A11DF9193
:1012F000CF911F910895EF92FF920F931F93CF9379
:10130000DF938C01892B09F46CC0F12CEE24E3945B
:10131000E8012196F8018491843740F4843008F084
:1013200051C0813081F0823019F15BC0853709F4FA
:1013300044C0A8F19CE7980F903708F052C08F770F
:101340000E941D0441C00E5F1F4FFE01849190E278
:10135000980F983050F48770FE2D01C0FF0F8A95CA
:10136000EAF78F2F0E94810D14C00E946E032DC0DA
:101370000E5F1F4FFE01849190E2980F983060F449
:101380008770FE2D01C0FF0F8A95EAF78F2F0E940C
:10139000870D0E94B00D19C00E941D0416C00E5F7B
:1013A0001F4FFE01C491CC2381F08FE99FE001978C
:1013B000F1F700C00000C150F6CF0E5F1F4FFE01D5
:1013C000F49003C00E946E038E018F2D882309F4D0
:1013D0009FCFEFE9FFE03197F1F700C000008150A7
:1013E000F5CFDF91CF911F910F91FF90EF9008956E
:1013F0001F93CF93DF93C091E40116E08091E50144
:10140000C81799F0D0E01C9FF0011D9FF00D11242A
:10141000EA51FE4F408151816281738184819581BF
:101420000E9492072196C770E9CFDF91CF911F915B
:101430000895409116025091170260911802709120
:10144000190280911A0290911B020C94920720912C
:10145000E4019091E50156E02917A9F030E0529F90
:10146000F001539FF00D1124EA51FE4F7181761364
:1014700006C07081781303C07281741306C02F5F99
:101480003F4F2770E9CF80E0089581E00895EF9203
:10149000FF920F931F93CF93DF9380911B0282954E
:1014A0008F7009F065C080911802882309F460C02C
:1014B0008091E401F090E50110911602009117026D
:1014C0006091190270911A0291E01F3F09F090E0BB
:1014D000C0910001D0910101292F96E0E92E8F15CE
:1014E00009F446C06115710521F00F3F21F030E08D
:1014F00003C031E001C0322F90E030FD36C0E89EDD
:10150000F001E99EF00D1124DF01AA51BE4F1196A2
:101510003C911197301329C03C91311326C012968B
:101520003C911297311121C013964D915C91149703
:10153000461B570B4C175D07C0F480911B028F7040
:10154000806180931B02E551FE4F80818F70806126
:10155000808386E192E00E940507DF91CF911F9181
:101560000F91FF90EF900C94F80901968770B7CF18
:10157000DF91CF911F910F91FF90EF9008958F927F
:101580009F92AF92BF92CF92DF92EF92FF920F9312
:101590001F93CF93DF93CDB7DEB761970FB6F89463
:1015A000DEBF0FBECDBF8C0185E0F801DE011D96C8
:1015B00001900D928A95E1F7D8011296EC909091E6
:1015C0001602209117024091190250911A024115FA
:1015D000510531F02F3F31F481E09F3F19F403C0F2
:1015E00081E001C080E080FD7CC1F801C080D18035
:1015F0008380948086E1A82E82E0B82EF0901802B5
:10160000B401641B750B4091000150910101FF2052
:1016100009F411C180911B02382F307F64177507C0
:1016200008F0CBC031118AC0D21214C0C91212C046
:10163000FE2CE1100FC08F70806180931B020E940E
:10164000190AC5010E94050780911B02D801159651
:101650008C9361C18114910439F0BFEFDB1206C095
:1016600081E0CB1203C003C081E001C080E080FDB7
:1016700003C081E08E2502C080E090E080FF10C0B2
:101680004E2D6D2D8C2D0E94270A882349F086E16E
:1016900092E00E940507E6E1F2E086E0DF019DC0EE
:1016A000892839F0BFEFDB1206C081E0CB1203C0FE
:1016B00003C081E001C080E080FD03C081E08E2591
:1016C00002C080E090E0E82FE170BE2E80FF2CC0C9
:1016D0004E2D6D2D8C2D0E94270AF82E811124C0CD
:1016E000CD86DE868D859E850E944D09292F229507
:1016F0002F70223018F0243090F405C09F7059F0FC
:10170000811109C008C19F7031F0D80115969C91D4
:10171000907F09F400C1805E883008F4FCC0C801E5
:101720000E940507FB2CF7C0FE2CEE2009F4F3C045
:1017300080911B02816080931B0254C0D21206C0AC
:10174000C91204C0E11002C0F80199C0C8010E948A
:101750007B07882361F1EE2051F120911B02822F3B
:1017600082958F7090E0029774F0809116029091AC
:10177000170298878F8319869B868A862C87CE01CD
:1017800007960E94050786E0F801A6E1B2E0019005
:101790000D928A95E1F70E94470A0E94190A0AC031
:1017A000D21611F1C8010E947B0781112CC0C8011B
:1017B0000E940507FF24F394AEC03111F1CF782DBC
:1017C000998A888AA6016E2D89890E94830786E1FD
:1017D00092E00E94050786E0D5011D928A95E9F7FF
:1017E0000E94190AF12C97C0C912DCCFE110DACFA0
:1017F000F8018583C8010E94050786E0D5011D9286
:101800008A95E9F788C0EE2091F220911B02822F81
:1018100082958F7090E002970CF4B5CF80911602FC
:10182000909117029A8389831B829D828C822E83DA
:10183000CE010196A6CF6417750708F044C0FE2CB0
:10184000EE2009F4B4CFD21230C0C9122EC02091BC
:101850001B0220FD21C0822F82958F70482F50E0FF
:1018600041155105C9F0F80125834F30510541F06C
:101870008F5F982F9295907F822F8F70892B858311
:10188000C8010E94050786E0F801A6E1B2E00190D8
:101890000D928A95E1F73DC086E0F801A6E1B2E03D
:1018A00001900D928A95E1F736C0C8010E947B072E
:1018B000811169CF80911B02816080931B02C80156
:1018C0000E94050728C0782D998A888AA6016E2D66
:1018D00089890E94830786E0D5011D928A95E9F7E0
:1018E00018C0EE2009F463CFC8010E947B07F82ED0
:1018F000882309F45CCF86E0F801A6E1B2E001900C
:101900000D928A95E1F786E192E00E9468030E94B9
:10191000470A0E94190A8F2D61960FB6F894DEBF10
:101920000FBECDBFDF91CF911F910F91FF90EF9030
:10193000DF90CF90BF90AF909F908F9008951F93AE
:10194000CF93DF93CDB7DEB72C970FB6F894DEBFF9
:101950000FBECDBF4F83588769877A878B879C8757
:10196000CE0107960E94BF0A8823D1F09F81888507
:101970002A853B85232B31F08F3F31F481E09F3F57
:1019800019F403C081E001C080E080FD47C04F81B1
:10199000588569857A858B859C850E9492073EC013
:1019A00086E0FE013796DE01119601900D928A9530
:1019B000E1F7FF81E8856A857B856115710531F066
:1019C000EF3F31F481E0FF3F19F403C081E001C033
:1019D00080E080FD23C02091E50130E0C90101963F
:1019E000877099274091E40150E084179507F1F141
:1019F000F983EA837D836C8396E0929FD001939F65
:101A0000B00D1124AA51BE4FFE01319601900D92E6
:101A10009A95E1F78093E5010E94F80916E080911C
:101A2000E4019091E501891771F1189FC00111241B
:101A30008A519E4F0E94BF0A882329F1E091E40158
:101A40001E9FF0011124EA51FE4F408151816281B5
:101A50007381848195810E9492078091E40190E0D6
:101A60000196877099278093E401D9CF0E9453078C
:101A70001092E5011092E401E6E1F2E086E0DF0178
:101A80001D928A95E9F72C960FB6F894DEBF0FBE2B
:101A9000CDBFDF91CF911F91089580911C02859554
:101AA00085958595089580911C0287700895909181
:101AB0001C02977081E009F480E00895809128026B
:101AC000089590912802892B80932802089580958B
:101AD0009091280289238093280208951092280269
:101AE000089590912702892B80932702089580956D
:101AF000909127028923809327020895109227024C
:101B0000089590912602892B80932602089580954E
:101B1000909126028923809326020895109226022E
:101B2000089580911D02089508950C94940D0C94CD
:101B3000950D9091960292FD08C090911D02981704
:101B400021F080931D020C94970D089580911D0241
:101B5000882329F010921D0280E00C94970D0895BF
:101B6000E0910201F0910301809128028083E091CD
:101B70000201F0910301908180912702892B8083DB
:101B8000E0910201F0910301908180912602892B5E
:101B9000808380911D02882381F0E0910201F09101
:101BA00003019081892B8083809102019091030130
:101BB0000E94361F81110E94A60D80910201909112
:101BC00003010C94F11E0C94940D9091960292FDD9
:101BD00010C098E0899F90011124262B20931C02AD
:101BE0000E94140880911C028595859585950C941A
:101BF000E30D0C94140810921C0280E00C94E30D89
:101C000020911C028095822380931C02982F97704C
:101C100099F430E0482F082E000C550B2417350797
:101C200059F09091960292FD07C08595859585950E
:101C30000E9435080C94FB0D08959091960292FB3A
:101C4000222720F9281769F080FB92F990939602D9
:101C500080919502909196020E94650E82E00C940C
:101C6000000E08958091960282FB882780F991E00A
:101C700089270C941D0E81E00C941D0E80E00C94BD
:101C80001D0E80E090E00E94BA2721E0893E9E4F21
:101C900009F020E0822F089582E090E00C94B227B2
:101CA00083E090E00C94B227CF9384E090E00E9410
:101CB000B227C82F82E290E00E94B2272C2F30E09A
:101CC000A901582BCA01CF910895CF93C92F682F2E
:101CD00084E090E00E94C0276C2F82E290E0CF91D8
:101CE0000C94C027AB01BC018FE090E00C94D2278C
:101CF000AB01BC0183E190E00C94D22760E070E07E
:101D0000CB010C94780E60E070E0CB010E94720E63
:101D10000C947E0E69EE7EEF80E090E00E94DE275C
:101D200060E082E090E00E94C02760E083E090E005
:101D30000E94C0271092E0011092E1011092E2018E
:101D40001092E30160E084E090E00E94C02760E030
:101D500082E290E00E94C02760E085E090E00E946F
:101D6000C02760E086E090E00E94C0276FEF87E028
:101D700090E00E94C02740E050E0BA0188E090E087
:101D80000E94D22760E08DE090E00E94C02740E0F2
:101D900050E0BA0188E190E00E94D22760E087E13C
:101DA00090E00E94C02740E050E0BA018CE190E052
:101DB0000E94D22760E070E080E290E00E94DE277F
:101DC00040E050E0BA0188E190E00E94D2270C94F4
:101DD000830E0C948A0E682F8EE090E00C94C0273E
:101DE0000E94222060933A0270933B0280933C024F
:101DF00090933D02609336027093370280933802CD
:101E000090933902089585B7806885BF85B780684B
:101E100085BF08950C941E1408950C940C0F0C9417
:101E20000C0F0C940F0F0C940C0F0C94130F0C94BC
:101E30000C0F0E94030F87E292E10E94D41E0E94C1
:101E4000170F0C94150F0E940D0F0C940C0F0E948D
:101E50000D200E94E6110E9404130E94FF180C94AA
:101E6000110F9F92AF92BF92CF92DF92EF92FF92AB
:101E70000F931F93CF93DF93CDB7DEB72A970FB69B
:101E8000F894DEBF0FBECDBF0E94931381110E9454
:101E9000F00E8AE2A82E82E0B82E00E010E0902E2C
:101EA000802F0E944E12D82EF501C1905F01C826E6
:101EB000B1F40F5F1F4F0C30110589F78FEF898345
:101EC0008A831B820E9416208160782F9D838C83D9
:101ED00049815A816B818D810E941E032FC08091A0
:101EE0003E0281FD0E945412E12CFF24F3948C2DBC
:101EF0008F21F1F00E940A0F882399F0EE829F82D1
:101F0000DF2081E009F480E088870E94162081604C
:101F1000782F9A8789874E815F8168858A850E949C
:101F20001E03F801E65DFD4F8081F826F08206C0B1
:101F3000E394FF0CF6E0EF12DACFBBCF0E94DE177E
:101F40000E94DE1E909129028917B9F00E94DE1EC0
:101F5000809329022A960FB6F894DEBF0FBECDBF3C
:101F6000DF91CF911F910F91FF90EF90DF90CF9075
:101F7000BF90AF909F900C9415032A960FB6F894DB
:101F8000DEBF0FBECDBFDF91CF911F910F91FF90AC
:101F9000EF90DF90CF90BF90AF909F90089580E03A
:101FA00090E00895089528E4829FC0011124FC0167
:101FB00026E0729FE00DF11D1124E60FF11DEE0FDA
:101FC000FF1FE450FF4F859194910895880F991F4A
:101FD000FC01E455FD4F859194910895CF93DF93D3
:101FE0000E940F11EC01811520E5920708F03FC017
:101FF000811540E4940708F0D2C0883E910500F5B1
:10200000803E910508F002C1883A910570F4853A46
:10201000910508F0A6C08130910509F49FC008F42D
:10202000F2C0049708F0F2C0EEC08F3B910508F4AF
:10203000A1C0803C910508F4E6C0805C9109A5C070
:10204000811550E2950760F4C11581E0D80708F0CA
:10205000DDC0CD3ED10508F4D6C0CE019065D7C015
:10206000811520E3920708F093C09F708EC0811500
:1020700045E5940708F046C0811554E5950708F03A
:10208000A6C0C11582E5D80718F5C11521E5D2070C
:1020900008F088C0CE01F4E096958795FA95E1F7AF
:1020A000282F23703C2F337081E090E002C0880F0E
:1020B000991F3A95E2F79C68922B2C2F2F7026954A
:1020C000269540E2249F90011124822B932B9FC0E0
:1020D0009E01237033279C2F96959695C115D34565
:1020E00008F065C041E050E002C0440F551F2A953A
:1020F000E2F780E2989F90011124CA01822B932B72
:102100009C6885C0811559E5950798F4C11588E547
:10211000D80708F061C0C11526E5D20708F073C0E2
:102120008C2F0E94A3118F7190E0982F88279062C6
:102130006EC081154AE5940708F453C09056811586
:10214000904208F060C08D2F8F710E94A3119E01F4
:10215000332730628F71A901582B53C081E090E082
:1021600056C0855AC82FD0E0CB56DE4F888190E00C
:1021700090644DC0885AC82FD0E0CC0FDD1FC959DC
:10218000DE4F88819981946442C00E94E60F3FC06F
:102190009927D3FF02C0986C3AC0906C38C09F70EA
:1021A000906A35C09C2F8827816F906A30C041E0CB
:1021B00050E002C0440F551F2A95E2F780E2989F35
:1021C00090011124CA01822B932B9A6820C0982F6A
:1021D0008827846F906A1BC09C2F8827806F906A25
:1021E00016C08F700E94A3119E0194E0369527952A
:1021F0009A95E1F72F7030E0322F22273069A9013C
:10220000482BCA0104C080E090E001C0CE01DF91FC
:10221000CF9108950E94D30F0E94EE0F0895823847
:10222000910569F1B0F48133910509F46DC048F46A
:102230008932910509F463C08A32910509F469C0B5
:1022400008958533910509F455C089339105B9F096
:102250000895833E910569F138F4803E9105B1F00F
:10226000823E910509F10895863E9105A9F1873EC8
:102270009105B9F1843E910509F064C023C0209115
:10228000950220FD4FC021FD4DC00895809195021B
:1022900080FD44C08091960280FF44C080919502E9
:1022A00084FD42C083EE4DC08091950282FF38C00C
:1022B000F5CF8091950282FD33C08091960280FD1A
:1022C00031C0ECCF8091960281FF32C0809195029F
:1022D00084FD2AC087EE35C08091950283FF26C019
:1022E000F5CF8091950283FD21C08091960281FDFA
:1022F0001FC0ECCF8091950285FD1CC01DC0809150
:10230000950285FD19C016C08091950286FD16C004
:1023100017C08091950286FD13C010C089E311C0DB
:1023200082EE0FC080EE0DC080E00BC086EE09C0CB
:1023300084EE07C089E205C085E303C08AE201C0DC
:1023400081E390E008959091950292FF0DC0282FAF
:102350002871283019F4877F846006C0282F2471E3
:10236000243011F48B7F886093FF0DC0282F2871D3
:10237000283119F4877E846106C0282F2471243106
:1023800011F48B7E88612091960220FF0DC0382FBA
:102390003871383019F4877F816006C0382F317169
:1023A000313011F48E7F886021FF0DC0282F2871F5
:1023B000283119F4877E816106C0282F21712131CF
:1023C00011F48E7E886194FD877E089510929102AB
:1023D0001092920210929302109294020895CF925A
:1023E000DF92EF92FF926B017C010E941E1481111B
:1023F0000EC00E942220C61AD70AE80AF90AC09223
:102400009102D0929202E0929302F0929402FF9095
:10241000EF90DF90CF9008950F931F930E941E14AA
:10242000882321F01F910F910C9422200E942220DA
:1024300000919102109192022091930230919402A6
:10244000600F711F821F931F1F910F91089580E0ED
:10245000089508950E94410E811102C00E94E90E64
:102460000E944C0E80933E020E94540E909396025E
:10247000809395020E9429120E94500E682F70E0EE
:1024800080E090E00E94B4076091DC017091DD0172
:102490008091DE019091DF010C94EC07E82FF0E0D1
:1024A000ED55FD4F80810895089580EA8A95F1F7F2
:1024B000089500C008950C94551208950C945D126F
:1024C0000C945E120C945D120C946212F894E82F36
:1024D000E295EF70F0E031A1282F2F7081E090E0BD
:1024E00001C0880F2A95EAF7982F9095932391A31E
:1024F00092A1892B82A37894089508950C947D125B
:102500000F931F93CF93DF93CEE9D1E089918F3F53
:1025100011F00E94661281E0C43AD807B9F7C8E901
:10252000D1E00EE911E089918F3F11F00E9466120F
:102530000C171D07C1F7DF91CF911F910F910895DF
:10254000CF92DF92EF92FF920F931F93CF93DF937F
:102550008C01C62FD0E0CE0182569E4F7C01FC013B
:1025600090819F3F09F447C0D62EF894E92FE29559
:10257000EF70F0E081A19F7021E030E001C0220FF8
:102580009A95EAF7822B81A382A12095282322A382
:1025900078940E945912E8E9F1E04EE951E031E007
:1025A000C12C21912F3F89F0A22FA295AF70B0E0EE
:1025B00090968C9190E02F7002C0959587952A9502
:1025C000E2F780FD02C0832F01C080E0C82A330FEC
:1025D0004E175F0731F7F70180818F3F11F00E949E
:1025E000661261E0C11001C060E08D2D0E945B1297
:1025F000C00FD11FC882DF91CF911F910F91FF9023
:10260000EF90DF90CF9008950E94381480910401DC
:1026100080910401811102C096E001C090E0909386
:10262000B00286E0891B8093AF020E9480128CE08A
:10263000E3EAF2E0DF01982F1D929A95E9F7E7E9C6
:10264000F2E0DF011D928A95E9F786E00E94E71328
:102650000E9496020C944214FF920F931F93CF9303
:10266000DF9300D000D000D0CDB7DEB70E941E149B
:102670006091B0028823E9F186E0F82E8E010F5FA9
:102680001F4FF8018F2D11928A95E9F7862F90E060
:10269000B8018D559D4F0E945014882389F0809178
:1026A000AF0290E046E050E0B8018D559D4F0E948A
:1026B0009C2721E020933F02892B61F410E016C093
:1026C00080913F028823D1F3F8011192FA94E9F73F
:1026D00010923F02A091AF02B0E0AD55BD4F86E031
:1026E000F80101900D928A95E1F711E00E949C0299
:1026F0000DC070E06D557D4F8091AF0290E08D551B
:102700009D4F0E94E0140E947E1210E0812F2696B9
:102710000FB6F894DEBF0FBECDBFDF91CF911F91F2
:102720000F91FF900895EF92FF920F931F93CF9315
:10273000DF93CDB7DEB72C970FB6F894DEBF0FBE90
:10274000CDBF8E010F5F1F4F8CE0F80111928A956B
:10275000E9F7F12C6F2DC8010E94A012F394F6E066
:10276000FF12F8CF4CE050E0B80187E992E00E94F8
:102770009C277C0121E0892B09F420E0E114F1047D
:1027800041F08CE0F801A7E9B2E001900D928A9542
:10279000E1F76091B00270E06D557D4F46E087E94A
:1027A00092E00E94E813EF2819F40E942C1302C053
:1027B00081E090E02C960FB6F894DEBF0FBECDBF3F
:1027C000DF91CF911F910F91FF90EF9008950895A1
:1027D000FF920F931F93CF93DF938C01F62ED72F89
:1027E000C42F222349F081E0809342020E941620E8
:1027F0009093410280934002809142028823C1F06D
:1028000080914002909141020E942E20059780F015
:10281000EF2DFD2FD8014C2F50E0CD01801B910BE7
:10282000841795071CF48D918193F7CF1092420283
:10283000DF91CF911F910F91FF90089580914502F4
:1028400081110DC00E946127811102C082E001C088
:1028500081E080934502823011F40E945C2781E080
:1028600090914502913009F080E008950C941E1477
:102870000E943614809304010E941E1481110C944E
:10288000881408950E941E14811102C00C948A14A9
:10289000089581E0909146029A3008F080E0089512
:1028A0000F931F93CF93DF93EC018B01809146022E
:1028B0008A3038F4B801CE010E94DE1481111DC0A7
:1028C0000AC080914302909144020E942E20843FCE
:1028D000914080F715C0809146028F3F19F08F5FBD
:1028E00080934602809146028A3060F00E94162052
:1028F000909344028093430203C01092460202C0A8
:1029000080E001C081E0DF91CF911F910F91089588
:102910000C940F1D0C94121DEF92FF920F931F93B6
:10292000CF93DF937901C82F880FDD0B4115510537
:10293000A9F08AE08C9FF0018D9FF00D1124EB5FD0
:10294000FE4F83819481895B9D4F228130E0421745
:10295000530708F49A01A9010E94A927CE010E94F9
:102960001C1E892B09F50115110501F18AE08C9FC8
:10297000F0018D9FF00D1124EB5FFE4F458150E07B
:102980000417150708F4A8018AE08C9FF0018D9FB9
:10299000F00D1124EB5FFE4F66817781695B7D4FFF
:1029A000C7010E94A92702C080E001C081E0DF9139
:1029B000CF911F910F91FF90EF9008950C94FD150A
:1029C0000C9419160F931F93CF93DF9300D000D070
:1029D000CDB7DEB7609160027091610280916202B2
:1029E000909163020E943D20643671058105910536
:1029F00028F10E940C12DC01CB010296A11DB11D31
:102A000089839A83AB83BC8300E010E020E030E050
:102A100044E050E0BE016F5F7F4F82E00E948C1463
:102A2000182F882361F00E94222060936002709327
:102A30006102809362029093630201C011E0812FD2
:102A40000F900F900F900F90DF91CF911F910F91EA
:102A50000895AF92BF92CF92DF92EF92FF920F93C1
:102A60001F93CF93DF937C015B016A010E9449149D
:102A7000811103C001E010E002C00AE010E0C1E0F3
:102A8000D0E0F894B501C701F60109957894811159
:102A900015C021960C171D0794F0CC9F9001CD9F77
:102AA000300D300D112480E090E045E34A95F1F7B8
:102AB0000000019682179307C1F7E3CF81E0DF9111
:102AC000CF911F910F91FF90EF90DF90CF90BF902B
:102AD000AF900895AF92BF92CF92DF92EF92FF92A4
:102AE0000F931F93CF93DF93CDB7DEB727970FB622
:102AF000F894DEBF0FBECDBF7B01C090AA01D0907D
:102B0000AB0101E010E09E01295F3F4F40E050E043
:102B100060E070E080E00E948C14182F882309F494
:102B20003EC056018FEFA81AB80A60915C027091FE
:102B30005D0280915E0290915F020E943D206436AA
:102B400071058105910518F106E010E09E012F5FE7
:102B50003F4F40E050E060E070E081E00E948C1464
:102B6000182F66E070E0C5010E94001991E02F81E6
:102B7000281390E0192339F10E94222060935C020F
:102B800070935D0280935E0290935F0211C066E0D5
:102B900070E0C5010E9400199F818913D5CF86E09E
:102BA000F6013196DE01119601900D928A95E1F7BA
:102BB000112349F086E0FE013196A6E5B2E00190CE
:102BC0000D928A95E1F786E0E6E5F2E0D701019003
:102BD0000D928A95E1F7812F27960FB6F894DEBF04
:102BE0000FBECDBFDF91CF911F910F91FF90EF905E
:102BF000DF90CF90BF90AF9008950F931F93CF9326
:102C0000DF93EC018B014AE655E10E9429158823E8
:102C100051F042EE54E1B801CE01DF91CF911F9106
:102C20000F910C94291580E0DF91CF911F910F91A6
:102C300008950F931F93CF93DF93F894C091AA0147
:102C4000D091AB01CE01019626E0FB01DC010190A1
:102C50000D922A95E1F766E070E00E9400198883E2
:102C60007894F8946F81788589859A8500915202CD
:102C70001091530220915402309155026017710750
:102C80008207930751F0609352027093530280932E
:102C90005402909355020E94EF117894DF91CF91E6
:102CA0001F910F9108950E9422220E94270F0C94D9
:102CB0002E220E9432220E94310F0C944C220E943C
:102CC0009D1F0E9409220E94190F0E9453160E9404
:102CD00059160E94230FFBCF80916C0280FF0BC01E
:102CE0006091270185E0689FB00111247595679573
:102CF000759567952BC081FF09C06091270185E01C
:102D0000689FB00111247595679520C082FF07C0A8
:102D10006091270185E0689FB001112417C0909150
:102D20006B029923D1F060912601961788F72091C4
:102D3000270185E0289F90011124929FA001939F75
:102D4000500D112470E0CA010E946E276038710591
:102D500040F46115710519F406C065E070E0862F36
:102D600008958FE7089581E0089580916C0280FFB7
:102D700008C06091240170E0759567957595679519
:102D800021C081FF06C06091240170E075956795B0
:102D900019C082FF04C06091240170E010C09091BE
:102DA0006A02992399F0609123019617A0F7809108
:102DB0002401899FC001112470E00E946E276038B1
:102DC000710540F46115710519F406C061E070E009
:102DD000862F08958FE7089581E008958D3E21F4B0
:102DE0000E946C16819504C08E3E29F40E946C16D8
:102DF0008093700208958F3E21F40E946C16819595
:102E000004C0803F29F40E946C1680936F020895DD
:102E1000893F19F40E94B51605C08A3F31F40E941B
:102E2000B51681958093710208958B3F21F40E941D
:102E3000B516819504C08C3F29F40E94B516809385
:102E4000720208959FE0980F983078F421E030E006
:102E5000A90102C0440F551F9A95E2F7CA0190914B
:102E60006E02892B80936E0208958D3F21F480912C
:102E70006C0281600BC08E3F21F480916C028260F5
:102E800005C08F3F29F480916C02846080936C02AE
:102E900008958D3E39F49091700297FF35C01092DD
:102EA000700259C08E3E29F4909170021916BCF33D
:102EB0002BC090916F028F3E29F497FF25C010928E
:102EC0006F0249C0803F19F41916CCF31DC09091D0
:102ED0007102893F29F41916BCF4109271023BC0AB
:102EE0008A3F19F497FF10C0F8CF8B3F39F49091C7
:102EF000720297FF09C0109272022DC08C3F21F41C
:102F0000909172021916BCF39FE0980F983080F4EC
:102F100021E030E0A90102C0440F551F9A95E2F765
:102F2000CA01809590916E02892380936E0213C02E
:102F30008D3F21F480916C028E7F0BC08E3F21F477
:102F400080916C028D7F05C08F3F29F480916C02C7
:102F50008B7F80936C0280916F02811106C08091FB
:102F60007002811102C010926B0280917102811176
:102F700006C080917202811102C010926A02089507
:102F80000E94162020916F02211104C0209170022E
:102F9000222321F0909369028093680220917102AC
:102FA000211104C020917202222321F09093670224
:102FB000809366028DE692E00C94FC1EEF92FF92E5
:102FC0000F931F93CF93DF9300D000D000D0CDB7E5
:102FD000DEB786E0EDE6F2E0DE01119601900D929B
:102FE0008A95E1F7E0906F02F09070020091710213
:102FF0001091720210926F02109270021092710280
:1030000010927202E11003C0FF2009F45DC08091AC
:103010006802909169020E942E20AC0190916B028F
:10302000992339F02091280130E02417350758F012
:103030004BC0209165028AE0289F9001112424173B
:10304000350718F041C09F3F19F09F5F90936B02C6
:10305000EE2061F00E946C161E1414F09FEF01C068
:1030600091E0989F902D112490936F02FF2061F0C2
:103070000E946C161F1414F09FEF01C091E0989FFE
:10308000902D11249093700230916F023323E1F060
:10309000209170022223C1F045EB3403C0011124BA
:1030A000992319F090936F0203C081E080936F021F
:1030B00035EB2303C0011124992319F0909370027A
:1030C00003C081E080937002011103C0112309F451
:1030D0005DC080916602909167020E942E20AC0133
:1030E00090916A02992339F02091250130E024174C
:1030F000350758F04BC0209164028AE0289F900168
:1031000011242417350718F041C09F3F19F09F5F25
:1031100090936A02002361F00E94B516101614F015
:103120009FEF01C091E0989F902D11249093710220
:10313000112361F00E94B516111614F09FEF01C023
:1031400091E0989F902D112490937202309171021A
:103150003323E1F0209172022223C1F045EB3403C6
:10316000C0011124992319F09093710203C081E0EA
:103170008093710235EB2303C0011124992319F0C8
:103180009093720203C081E08093720280916F027B
:1031900081110BC080917002811107C08091710272
:1031A000811103C08091720281110E94C017EB82CD
:1031B000FC820D831E8386E0FE013196ADE6B2E00F
:1031C00001900D928A95E1F726960FB6F894DEBF2E
:1031D0000FBECDBFDF91CF911F910F91FF90EF9068
:1031E0000895EDE6F2E086E0DF011D928A95E9F7A9
:1031F00010926B0210926A0210926C020895089568
:10320000FC01680F791F8FEF91E3E617F70771F064
:103210002191822728E030E087FF03C0880F8927AB
:1032200001C0880F21503109B9F7EFCF0895CF932E
:10323000DF93EC01FB018281882309F426C1C430AD
:10324000FDE5DF0760F4CB3F9CE5D90768F49E01FC
:1032500022503C452431310508F018C105C0C23662
:10326000EDE5DE0709F012C10E94540E909396021C
:1032700080939502C031FCE5DF0709F4CAC008F06D
:1032800041C0C8309CE5D90709F4A4C0F0F4C430AB
:10329000FCE5DF0709F48CC068F4C2309CE5D9076F
:1032A00009F482C0C330DC4509F0E5C08091950285
:1032B0008260DFC0C630FCE5DF0709F483C008F098
:1032C00085C0809195028860D4C0CC309CE5D90738
:1032D00009F490C068F4CA30FCE5DF0709F47EC049
:1032E00008F084C00E945307809195028068C1C095
:1032F000CE309CE5D90709F481C008F086C08091E2
:10330000950294C0CD3FFCE5DF0709F47BC038F59A
:10331000C4319CE5D90709F49AC058F4C231FCE5E0
:10332000DF0709F47AC008F07EC0809195028F7B98
:10333000A0C0CB3F9CE5D907F1F108F03FC0C531F3
:10334000DC4509F098C08091950282FB222720F984
:1033500091E0922790FB82F990FB83F98AC0C130FB
:103360008DE5D80709F467C050F480919602CF3FED
:10337000ECE5DE07C1F108F05BC08D7F65C0C330AE
:103380008DE5D80709F471C008F46DC0C236DD457B
:1033900009F071C08091950284FB222720F991E009
:1033A000922790FB84F965C080919502816061C08D
:1033B0008091950216C08091960216C08091960267
:1033C000826042C080919502806153C080919502D5
:1033D00080624FC08091950280644BC080919502BD
:1033E0008860846046C0826081602EC080919502B2
:1033F0008E7F3FC0809195028D7F3BC0809195026A
:10340000877F37C08091960214C0809195028F7E8D
:1034100030C0809195028F7D2CC00E94530780910F
:1034200095028F7726C080919502877F8B7F21C080
:103430008D7F8E7F09C080919602982F9095917014
:103440008E7F892B90FB81F98093960214C00E9495
:1034500053078091950287FB222720F991E092275C
:1034600090FB87F906C081E001C080E00E94EB0E6E
:1034700002C08093950280919502909196020E94DD
:10348000650E0E94530780E001C081E0DF91CF917B
:103490000895893279F1E0F4843161F1A0F4873044
:1034A00009F075C01092650294E190932801809311
:1034B00027018CE38093260188E08093240188E231
:1034C0008093230164C092EE980F9A30F0F05FC0B1
:1034D000803509F444C028F48F3409F058C08AE0DC
:1034E0003FC0813529F0823509F051C081E038C0F4
:1034F0008FEF36C080917502882379F110927502A2
:10350000109274021092730242C08D518093750222
:10351000833099F038F4813069F08230D9F488E250
:1035200091E00DC0853099F078F0863099F483E20F
:1035300091E005C085E692E002C087E291E09093B9
:1035400074028093730223C086E291E0F8CF84E294
:1035500091E0F5CF109275021AC080E0089586EFD1
:10356000E0917302F0917402309789F02081082E67
:10357000000C990B820F911D8F3F910519F014F0EB
:103580008FEF04C097FF02C0108201C0808381E0EA
:1035900008950F931F9341E050E060E070E08A01CE
:1035A0009B0104C0000F111F221F331F8A95D2F701
:1035B000C901B8010E94B4071F910F910C945307E1
:1035C0008B3109F468C058F58B3009F486C078F463
:1035D000863009F445C020F4853009F44BC07FC023
:1035E000873009F44AC0883009F477C078C0803148
:1035F00009F464C068F48E3009F071C080913E0215
:1036000082FB222720F991E0922790FB82F94CC09F
:10361000863109F462C0893109F45FC060C08A3222
:10362000E1F060F4873209F455C028F48E3108F4D3
:1036300056C08D5150C08932E9F051C0833450F4E6
:103640008A3308F045C0853309F444C0883309F44F
:1036500044C045C08334F1F142C00E94E90E3DC030
:1036600080913E02817F8E7F80933E0281E0809335
:10367000760208950E94A40230C080913E02982FE5
:103680009095917090FB80F980933E02911125C036
:10369000897F877F10C080913E0281FB222720F91D
:1036A00091E0922790FB81F980933E029923A9F043
:1036B00080913E02816080933E020FC080913E0265
:1036C00083FB222720F991E0922790FB83F9ECCF2E
:1036D000895301C080E00E94C91A81E0089580E00A
:1036E000089580E008950C94711BCF93C82F8091AA
:1036F0007602813069F038F08230C1F58C2F0E945B
:10370000491A81E039C00E945E0D823289F504C0F9
:103710000E945E0D823261F48C2F0E94731B811116
:1037200004C08C2F0E94E01A1FC081E090E01CC0F2
:103730008C2F0E94711B811116C0C43189F058F47E
:10374000CB3089F0C031B1F482E08093760288E317
:103750000E94491A08C0C93219F0C83321F00AC0C2
:103760001092760207C081E0817006C01092760246
:1037700080E002C080E0F8CFCF910895CF93DF932F
:1037800086319C4541F5EB010E945E0D982F8A81A0
:103790002091020130910301882379F09A7A81E027
:1037A00009F480E080937702911102C069E201C0C0
:1037B00065E3C9010E94781F0AC0809177028111D8
:1037C00002C069E201C065E3C9010E947A1F0E943C
:1037D000B00D80E001C081E0DF91CF9108950F939B
:1037E0001F93CF93DF93C42FD22FFC0182818823B4
:1037F000C9F040937A020E94162090937902809338
:10380000780280E28C0F883008F057C0C77081E0E2
:1038100001C0880FCA95EAF7DF91CF911F910F91F0
:103820000C94A50480917A02481330C080917802EC
:10383000909179020E942E20883C910538F510E283
:103840001D0FCD17B9F080E28C0F883040F4C7709F
:1038500081E001C0880FCA95EAF70E94AC041830D5
:1038600028F581E09D2F977001C0880F9A95EAF79F
:103870000E94A504802F0E949C041830F0F4D77099
:1038800081E001C0880FDA95EAF70AC080E28C0F68
:10389000883098F4C77081E001C0880FCA95EAF7B4
:1038A000DF91CF911F910F910C94AC04802FDF9189
:1038B000CF911F910F910C949C04DF91CF911F9198
:1038C0000F9108950F939C01CB01243F4CE53407E1
:1038D00031F188F4293DFCE53F07D9F02A3D4CE55C
:1038E000340779F1283D3C45A9F506E221EE41EE89
:1038F00068ED7CE52BC0263FFCE53F07E1F0A8F032
:10390000273F3C4539F507E225EE46EE67EF7CE5BB
:103910001DC007E225EE45EE69ED7CE517C006E225
:1039200021EE40EE64EF7CE511C007E225EE44EEA7
:1039300065EF7CE50BC006E221EE42EE66EF7CE52A
:1039400005C008E221E045EE6AED7CE50E94EF1B30
:1039500080E008C0FC018281882319F010927A026D
:1039600001C081E00F9108958EE1489B02C0815013
:10397000E1F7489BFECF0895589880E28A95F1F7C9
:10398000589A0895FC012AE02A95F1F728E090E082
:1039900080E031E040E14A95F1F7880F489B02C092
:1039A0008160932700C0000040E14A95F1F7215063
:1039B00089F720E12A95F1F729B100C0000030E134
:1039C0003A95F1F7217092272081920F9083089504
:1039D000EF92FF920F931F93CF93DF931F92CDB778
:1039E000DEB719828C017C01E60EF11C0E151F0555
:1039F00051F00E94B41CCE0101960E94C21CF80135
:103A000081938F01F3CF81E09981911180E00F9034
:103A1000DF91CF911F910F91FF90EF900895509AF1
:103A2000589A08955098589AE89AE9E6F0E080810B
:103A30008C7F80830895615091E001C0990F6A9551
:103A4000EAF720E031E0992361F0492F482319F08B
:103A5000589A232701C0589840E24A95F1F7969565
:103A6000F2CF222311F0589A01C0589880E28A952B
:103A7000F1F758980895FF920F931F93CF93DF9318
:103A8000EC018C01060F111DC017D10741F0F99010
:103A90000E94BC1C68E08F2D0E941B1DF5CFDF919A
:103AA000CF911F910F91FF9008951F920F920FB623
:103AB0000F921124EF92FF920F931F932F933F9336
:103AC0004F935F936F937F938F939F93AF93BF9326
:103AD000EF93FF93CF93DF931F92CDB7DEB7198299
:103AE0000E94B41CCE0101960E94C21CA82FA6956C
:103AF000A695A6959A2F969595702A2F2570920FC8
:103B0000292F237096959695920F877089137CC004
:103B10008981811179C0A43008F076C080E18A954E
:103B2000F1F7589A509AB2E0BA95F1F700C0589858
:103B3000EA2EF12CEAE0AE9FD0011124AB5FBE4F1C
:103B40001896ED91FC9119973097B1F06091AA0108
:103B50007091AB0116962D913C911797260F371F48
:103B600013968D919C911497680F791F15964C911F
:103B7000159712968C9109958AE08E9DF0018F9D84
:103B8000F00D1124EB5FFE4F6581662351F08091AB
:103B9000AA019091AB0126813781820F931F0E9469
:103BA0003B1D0E94BC1CF0E1FA95F1F75898509823
:103BB000589A80E18A95F1F78AE08E9D80018F9D69
:103BC000100D11240B5F1E4FD80112966C911297A5
:103BD000662399F08091AA019091AB0113962D91E3
:103BE0003C911497820F931F0E94E81CD801ED911D
:103BF000FC91811105C082E004C0D801ED91FC91D7
:103C000088E080830E94B41C0F90DF91CF91FF91D8
:103C1000EF91BF91AF919F918F917F916F915F9144
:103C20004F913F912F911F910F91FF90EF900F9027
:103C30000FBE0F901F9018950F931F93CF93DF9394
:103C4000843091050CF0A9C02AE0289FF001299F3B
:103C5000F00D1124EB5FFE4F20813181232B09F4FD
:103C60009CC0EC01F894509A589885E08A95F1F739
:103C700000008C2F869585709C2F9570890F982F4A
:103C80009370869586958E0123E0000F111F2A956B
:103C9000E1F7890F082B0E94BC1CA4E0AA95F1F75C
:103CA00000C068E0802F0E941B1DB0E1BA95F1F7BB
:103CB0005098589A489902C000C0FCCF87E090E025
:103CC000489B17C0019799F4509A589A8AE08C9FA4
:103CD000F0018D9FF00D1124EB5FFE4F0190F081FC
:103CE000E02D81E08083789481E090E058C000C0AE
:103CF000E7CF8AE08C9F80018D9F100D11240B5F10
:103D00001E4FF80165816623B9F08091AA01909158
:103D1000AB0126813781820F931F0E94E81C81111D
:103D20000BC0509A589AD801ED91FC9182E08083A3
:103D3000789482E090E033C00E94B41CB0E2BA955F
:103D4000F1F75898509AE0E1EA95F1F78AE08C9FF4
:103D5000F0018D9FF00D1124EB5FFE4F6281662311
:103D600051F08091AA019091AB0123813481820F9F
:103D7000931F0E943B1D0E94BC1C8AE08C9FF00197
:103D80008D9FF00D1124EB5FFE4F0190F081E02D2F
:103D90001082789480E090E002C084E090E0DF91AF
:103DA000CF911F910F9108959093AD018093AC0135
:103DB0000895909381028093800208950E941E14BA
:103DC000811103C080917B020895E0918002F091FF
:103DD0008102309721F00190F081E02D099480E07C
:103DE0000895E0918002F0918102309721F00280E5
:103DF000F381E02D09940895E0918002F091810211
:103E0000309739F022E0DC012C930480F581E02D1D
:103E10000994089520917E0230917F022817390776
:103E200071F090937F0280937E02E0918002F09186
:103E30008102309721F00680F781E02D09940895E2
:103E400020917C0230917D022817390771F0909300
:103E50007D0280937C02E0918002F0918102309794
:103E600021F00084F185E02D09940895FC0132963B
:103E700097E080E0915029F021912223D9F38F5FC0
:103E8000F9CF0895662349F0FC01329608962191F6
:103E9000621729F0E817F907D1F780E0089581E06B
:103EA00008959C01FC0132969FEF80E041914617F6
:103EB00089F09F3F19F4411101C0982F8F5F863020
:103EC000A9F79F3F39F0F901E90FF11D97FDFA9528
:103ED0006283089508959C012A5F3F4FFC0142814F
:103EE000461301C01282019682179307B9F708950D
:103EF0000C94511F0C946B1F029626E0FC0111924A
:103F00002A95E9F7089508950C94831F83E0809320
:103F100082020C94841F811102C081E001C082E002
:103F2000809382020C94841F0C948B1F81E08093F9
:103F300082020C94841F0C94961F08958091BA02FB
:103F4000843031F10E949E021092830220E488E1C5
:103F500090E00FB6F894A895809360000FBE209370
:103F6000600083B7817F846083BF83B7816083BF34
:103F70007894889583B78E7F83BF0FB6F894A89501
:103F800080916000886180936000109260000FBE95
:103F9000089508950C94C91FCF930E94CA1F0E94D0
:103FA00093130E94C91FC0E08C2F0E944E128111F2
:103FB00004C0CF5FCC30C1F701C081E0CF9108953C
:103FC0000E9453070C9407031F920F920FB60F9293
:103FD00011248F939F93AF93BF938091830281119C
:103FE00013C08091B2029091B302A091B402B0913B
:103FF000B5024196A11DB11D8093B2029093B30208
:10400000A093B402B093B502BF91AF919F918F91ED
:104010000F900FBE0F901F90189582E084BD93E023
:1040200095BD9AEF97BD80936E0008952FB7F894D1
:104030008091B2029091B302A091B402B091B50206
:104040002FBF08952FB7F8946091B2027091B30218
:104050008091B4029091B5022FBF08959C014FB793
:10406000F8948091B2029091B302A091B402B09101
:10407000B5024FBF821B930B0895CF92DF92EF9250
:10408000FF922FB7F894C090B202D090B302E090A4
:10409000B402F090B5022FBFA7019601261B370B83
:1040A000480B590BCA01B901FF90EF90DF90CF90F8
:1040B000089578941F920F920FB60F9211248F9348
:1040C0009F93AF93BF938091B2029091B302A0915E
:1040D000B402B091B5020196A11DB11D8093B20248
:1040E0009093B302A093B402B093B502BF91AF9185
:1040F0009F918F910F900FBE0F901F90189587E79B
:1041000097E790930108809300089AE088E10FB642
:10411000F894A895809360000FBE90936000FFCF45
:1041200080918F020895089522E02093E9002FEFF7
:104130003091E800215035FD06C035ED3A95F1F794
:1041400000002111F5CF2091E80025FF0BC040E0D1
:1041500050E066E070E00E94BE228091E8008E7719
:104160008093E8000895CF93DF9321E02093E90046
:104170002FEF3091E800215035FD06C035ED3A951E
:10418000F1F700002111F5CF2091E80025FF14C0C0
:10419000EC0140E050E068E070E00E94BE228091B7
:1041A000E8008E778093E80088E0FE01A7E8B2E09F
:1041B00001900D928A95E1F7DF91CF910895809358
:1041C000840270938602609385028091BA028430E3
:1041D00001F582E08093E9008FEF9091E800815033
:1041E00095FD06C095ED9A95F1F700008111F5CF88
:1041F0008091E80085FF0DC040E050E063E070E092
:1042000084E892E00E94BE228091E8008E7780933D
:10421000E8000895BC0184E00C94DF20BC0183E039
:104220000C94DF208091B902811109C00E944F24B3
:104230000E94AC248091E20084608093E2000895A3
:104240001092B90208950C949B1F6091B60281E010
:10425000611101C080E00C94861F9091BA0281E048
:10426000943009F080E06091B6020C948B1F42E01C
:1042700061EC81E00E94C82342E261EC82E00E948E
:10428000C8239091BA0281E0943009F080E06091F7
:10429000B6020C94941F8091BC02833009F461C073
:1042A00030F4813071F0823009F49AC008958A3078
:1042B00009F486C08B3009F46CC0893009F0A8C0BD
:1042C00020C08091BB02813A09F0A2C08091E80031
:1042D000877F8093E8008091BF029091C002892B74
:1042E00021F468E087E892E003C060E080E090E0BD
:1042F00070E00E9409238091E8008B778093E800AA
:1043000008958091BB02813209F082C08091BF0282
:104310009091C002029708F07BC08091E800877FEF
:104320008093E8008091E80082FD05C08091BA0288
:104330008111F8CF6DC02091F3008091F20090E0E0
:10434000922B029731F48091F100813011F0863088
:1043500021F48091F10080938F028091E8008B77A7
:1043600053C08091BB02813A09F052C08091BF02D4
:104370009091C002892B09F04BC08091E800877FA3
:104380008093E8008091E80080FFFCCF80913501A8
:1043900036C08091BB028132D9F58091BF029091E5
:1043A000C002892BA9F58091E800877F8093E800FF
:1043B0000E94FD238091BD02809335010C94530728
:1043C0008091BB02813221F58091E800877F809344
:1043D000E8000E94FD238091BE0280939002089520
:1043E0008091BB02813AA1F48091E800877F80939D
:1043F000E8008091E80080FFFCCF809190028093DC
:10440000F1008091E8008E778093E8000C94FD2302
:10441000089584B7877F84BF0FB6F894A8958091DC
:104420006000886180936000109260000FBE90E091
:1044300080E80FB6F89480936100909361000FBEFE
:104440000C94961F0E944F240E94AC24E2EEF0E0F0
:1044500080818460808378940C94412789E291E084
:104460000C94D91E8091BA028530A9F48091BA02C9
:10447000853079F40E949E1F8091B8028823B1F3A1
:104480000E94CC1F882391F30E94A8220E94530708
:10449000EDCF0C94E01F089508950C944F22292F1E
:1044A000332723303105C9F060F42130310581F024
:1044B0002230310509F044C08BE390E02EEE32E06B
:1044C00043C021323105E1F02232310549F138C0D3
:1044D00082E190E029E233E037C0992781309105ED
:1044E00049F028F0029761F5ECEAF2E005C0EAEE47
:1044F000F2E002C0EAEDF2E0849190E09F0124C076
:104500006115710541F061307105D1F489E090E0E9
:1045100029E133E019C089E090E020E033E014C0E5
:104520006115710541F06130710551F48BE790E040
:104530002BE333E009C080E490E026EB33E004C0D5
:1045400080E090E020E030E0FA013183208308959C
:1045500080E189BD82E189BD09B400FEFDCF809173
:10456000D8008F7D8093D8008091E0008260809396
:10457000E0008091E00081FDFCCF0895CF92DF92B2
:10458000EF92FF920F931F93CF93DF93EC018B0178
:104590007A010E941C24811133C0E114F10439F026
:1045A000F70180819181081B190BC80FD91FC12CFD
:1045B000D12C0115110519F18091E80085FD16C077
:1045C0008091E8008E778093E800E114F10449F0CF
:1045D000F70180819181C80ED91ED182C08285E009
:1045E0000FC00E941C24882321F30AC08991809364
:1045F000F10001501109FFEFCF1ADF0ADACF80E096
:10460000DF91CF911F910F91FF90EF90DF90CF90AE
:1046100008952091C1023091C2022617370748F051
:104620006115710539F42091E8002E772093E80098
:1046300001C0B901FC0120E06115710579F180919B
:10464000BA028823F1F18530F1F18091E80083FD11
:104650003CC08091E80082FD2EC08091E80080FF80
:10466000EBCF2091F3008091F20090E0922B611546
:10467000710551F08830910538F421912093F100B3
:10468000615071090196F3CF21E0089709F020E00D
:104690008091E8008E778093E800CECF2111CFCFB4
:1046A0000AC08091BA02882361F0853061F0809160
:1046B000E80083FD0AC08091E80082FFF2CF80E02D
:1046C000089582E0089583E0089581E0089520919F
:1046D000C1023091C2022617370748F061157105F3
:1046E00039F42091E8002E772093E80001C0B90149
:1046F000FC0120E06115710591F18091BA028823D7
:1047000009F440C0853009F43FC08091E80083FD82
:104710003DC08091E80082FD2FC08091E80080FFBD
:10472000E9CF2091F3008091F20090E0922B611587
:10473000710559F08830910540F424912093F100DF
:104740003196615071090196F2CF21E0089709F086
:1047500020E08091E8008E778093E800CBCF211194
:10476000CCCF0AC08091BA02882361F0853061F015
:104770008091E80083FD0AC08091E80082FFF2CFBB
:1047800080E0089582E0089583E0089581E008952F
:10479000982F973068F59093E900981739F0709149
:1047A000EC002091ED005091F00003C0242F762FF3
:1047B00050E021FD02C09F5FECCF3091EB003E7FC7
:1047C0003093EB003091ED003D7F3093ED00309160
:1047D000EB0031603093EB007093EC002093ED0020
:1047E0005093F0002091EE0027FDE5CF80E0089582
:1047F0008F708093E90081E008958091BB0287FF6C
:1048000011C08091E80082FD05C08091BA0281113B
:10481000F8CF11C08091E8008B770BC08091BA026D
:10482000882349F08091E80080FFF8CF8091E8006C
:104830008E778093E80008952091E4003091E500A0
:1048400095E64091EC00842F817040FF23C0809159
:10485000E80080FD1DC08091BA02882399F0853060
:1048600099F08091EB0085FD11C04091E4005091DA
:10487000E5002417350729F3915011F09A01E1CF93
:1048800084E0089582E0089583E0089581E008952A
:1048900080E008954091E80042FFDDCF08950E9436
:1048A000BD240E94C524E0EEF0E080818160808319
:1048B000E8EDF0E080818F77808319BCA7EDB0E050
:1048C0008C918E7F8C9380818F7E80831092B90231
:1048D00008950F931F93CF93DF930E94BD240E94EE
:1048E000C524C8EDD0E088818F778883888180686F
:1048F000888388818F7D888319BC1092BA021092B8
:10490000B6021092B8021092B70200EE10E0F80161
:1049100080818B7F808388818160888342E060E032
:1049200080E00E94C823E1EEF0E080818E7F8083EA
:10493000E2EEF0E080818160808380818860808306
:10494000F80180818E7F8083888180618883DF91F8
:10495000CF911F910F910895E8EDF0E080818F7E57
:104960008083E7EDF0E080818160808384E082BF16
:1049700081E08093B9020C946924E8EDF0E0808135
:104980008E7F80831092E20008951092DA001092D8
:10499000E10008951F920F920FB60F9211242F93EA
:1049A0003F934F935F936F937F938F939F93AF93B7
:1049B000BF93EF93FF938091E10082FF0BC0809142
:1049C000E20082FF07C08091E1008B7F8093E100CD
:1049D0000E9440278091DA0080FF1FC08091D8009C
:1049E00080FF1BC08091DA008E7F8093DA00809177
:1049F000D90080FF0DC080E189BD82E189BD09B485
:104A000000FEFDCF81E08093BA020E94122105C012
:104A100019BC1092BA020E9420218091E10080FF0F
:104A200019C08091E20080FF15C08091E2008E7F66
:104A30008093E2008091E20080618093E2008091A7
:104A4000D80080628093D80019BC85E08093BA02B8
:104A50000E9425218091E10084FF30C08091E20016
:104A600084FF2CC080E189BD82E189BD09B400FECC
:104A7000FDCF8091D8008F7D8093D8008091E10098
:104A80008F7E8093E1008091E2008F7E8093E20030
:104A90008091E20081608093E2008091B6028823D9
:104AA00011F084E007C08091E30087FD02C081E03F
:104AB00001C083E08093BA020E942D218091E10021
:104AC00083FF29C08091E20083FF25C08091E1002F
:104AD000877F8093E10082E08093BA021092B60251
:104AE0008091E1008E7F8093E1008091E2008E7FD3
:104AF0008093E2008091E20080618093E20042E0D6
:104B000060E080E00E94C8238091F000886080937C
:104B1000F0000E942321FF91EF91BF91AF919F91EF
:104B20008F917F916F915F914F913F912F910F9056
:104B30000FBE0F901F9018951F920F920FB60F92F5
:104B400011242F933F934F935F936F937F938F9392
:104B50009F93AF93BF93CF93DF93EF93FF93C09156
:104B6000E900CF708091EC00D82FD17080FDD0E8A3
:104B70001092E9008091F000877F8093F000789494
:104B80000E94E0251092E9008091F00088608093F7
:104B9000F000CD2BCF70C093E900FF91EF91DF9132
:104BA000CF91BF91AF919F918F917F916F915F91C5
:104BB0004F913F912F910F900FBE0F901F9018951E
:104BC0001F93CF93DF93CDB7DEB7AA970FB6F894B4
:104BD000DEBF0FBECDBFEBEBF2E08091F100819321
:104BE00022E0E33CF207C9F70E944B218091E800E4
:104BF00083FF2EC18091BB029091BC02492F50E0EF
:104C00004A30510508F024C1FA01EC58FF4F0C94CA
:104C10008227803821F0823809F01AC108C08091BB
:104C2000B7029091B802992389F082600FC08091F9
:104C3000BF028F70873008F00BC18093E90080912C
:104C4000EB0085FB882780F91092E9009091E8003D
:104C5000977F9093E8008093F1001092F100D1C00B
:104C6000282F2D7F09F0F4C0882319F0823061F0DD
:104C7000EFC08091BD02813009F0EAC0933009F0A5
:104C800080E08093B8022EC08091BD0281112AC0BD
:104C90008091BF028F702FEF280F263008F0D8C008
:104CA0008093E9002091EB0020FF1CC0933021F499
:104CB0008091EB00806214C09091EB009061909322
:104CC000EB0021E030E0A90102C0440F551F8A9596
:104CD000E2F74093EA001092EA008091EB008860CE
:104CE0008093EB001092E9008091E800877F809329
:104CF000E8000E94FD23ACC08111AAC01091BD0242
:104D00001F778091E3008078812B8093E30080916E
:104D1000E800877F8093E8000E94FD238091E800EF
:104D200080FFFCCF8091E30080688093E300111145
:104D300002C082E001C083E08093BA0289C080583B
:104D4000823008F085C08091BD029091BE028C3DFA
:104D500053E0950779F583E08A838AE289834FB728
:104D6000F894DE01139620E03EE051E2E32FF0E0FC
:104D700050935700E49120FF03C0E295EF703F5F2E
:104D8000EF708E2F90E0EA3010F0C79601C0C09609
:104D90008D939D932F5F243149F74FBF8091E80099
:104DA000877F8093E8006AE270E0CE0101960E945E
:104DB000092316C06091BF027091C002AE014F5F1F
:104DC0005F4F0E944D22BC01892B09F441C0909194
:104DD000E800977F9093E80089819A810E94672379
:104DE0008091E8008B778093E80032C0803881F5AD
:104DF0008091E800877F8093E8008091B6028093DD
:104E0000F1008091E8008E7772CF811121C08091EE
:104E1000BD029091BE0299270297D4F48091E800D8
:104E2000877F8093E8008091BD028093B6020E9444
:104E3000FD238091B602811106C08091E30087FDB9
:104E400002C081E001C084E08093BA020E94372151
:104E50008091E80083FF0AC08091E800877F8093FB
:104E6000E8008091EB0080628093EB00AA960FB679
:104E7000F894DEBF0FBECDBFDF91CF911F91089593
:104E80000895CF938091BA028823A1F0C091E900E0
:104E9000CF709091EC00892F817090FD80E8C82B35
:104EA0001092E9008091E80083FD0E94E025CF7018
:104EB000C093E900CF9108950E944F241092BA0246
:104EC0000895E8EDF0E08081806180838AE18A9531
:104ED000F1F700C08091D9008170089597FB072EEB
:104EE00016F4009407D077FD09D00E94882707FCAC
:104EF00005D03EF4909581959F4F089570956195EA
:104F00007F4F0895EE0FFF1F0590F491E02D099457
:104F1000AA1BBB1B51E107C0AA1FBB1FA617B707DF
:104F200010F0A61BB70B881F991F5A95A9F78095FB
:104F30009095BC01CD010895FB01DC0104C08D9169
:104F40000190801921F441505040C8F7881B990BFB
:104F50000895FB01DC0102C001900D9241505040C8
:104F6000D8F70895F999FECF92BD81BDF89A992797
:104F700080B50895A8E1B0E042E050E00C94E62747
:104F8000262FF999FECF92BD81BDF89A019700B402
:104F9000021639F01FBA20BD0FB6F894FA9AF99AA2
:104FA0000FBE08950396272F0E94C1270E94C02795
:104FB000252F0E94C127242F0C94C1270196272F4B
:104FC0000E94C1270C94C027DC01CB01FC01F99998
:104FD000FECF06C0F2BDE1BDF89A319600B40D9245
:0C4FE00041505040B8F70895F894FFCFFE
:104FEC00C8001E0201B1020000000100000000B167
:104FFC00020000000601000000B1020407000000DE
:10500C000000002808643C07149020B32094200E64
:10501C00210A21932001E200E900EA00B500B60064
:10502C00B700CD008301CC008A01920194012102CA
:10503C00230224022502260227022A02B300B4000E
:10504C006F007000818283E200E900EA00B500B6CF
:10505C0000B700CD008301CC008A0192019401219C
:10506C0002230224022502260227022A02B300B4DC
:10507C00006F007000818283946697C63435F6F712
:0C508C0031333236000000000000470203
:00000001FF
